:100000000C945A000C9477000C9477000C947700B1
:100010000C9477000C9477000C9477000C943602C3
:100020000C9477000C9477000C9477000C94770074
:100030000C9477000C9477000C9477000C94770064
:100040000C9477000C9477000C9439010C948D017A
:100050000C9477000C9477000C9477000C94770044
:100060000C9477000C9477000C9477000C94770034
:100070000C9463010C94C5010C9477000C947700E8
:100080000C9477000C9477000C9477000C94770014
:100090000C9477000C9477000C9477000C94770004
:1000A0000C9477000C9477000C9477000C947700F4
:1000B0000C94770011241FBECFEFD8E0DEBFCDBF78
:1000C00021E0A6E0B1E001C01D92A431B207E1F742
:1000D00011E0A0E0B1E0E2E8F7E002C005900D9287
:1000E000A630B107D9F70E947C000C94BF030C9492
:1000F00000008AE090E008950E94FD010E94220223
:100100000E9426020E94600285E090E00E94CE00DC
:1001100085E090E00E94B30078940E94A9000E94BC
:100120000D01C82F8F3F39F00E94AE006C2F0E9446
:10013000E9000E9427010E941202EC010E9479004E
:10014000C817D90718F40E946802E7CF0E946B0213
:10015000E4CF8091080190910901089580910A01EE
:1001600090910B0108959093CD008093CC0088E985
:100170008093C90086E08093CA0082E890E00E94E4
:100180009E02909309018093080182E890E00E940A
:100190009E02909307018093060108959093C500F5
:1001A0008093C40088E18093C10086E08093C20000
:1001B00082E890E00E949E0290930D0180930C01D2
:1001C00082E890E00E949E0290930B0180930A01C6
:1001D0000895009709F1FC01E058FF4F208141E0AC
:1001E00050E02E3711F040E050E0FC01EF57FF4F98
:1001F000E081F0E04E235F23452B21F0FC01EF5717
:10020000FF4F2083FC01E20FF11D6083FC01E058E9
:10021000FF4F2F5F2F77208308950097A1F0FC01F7
:10022000EF57FF4F208131973081231771F0FC0188
:10023000E20FF11D3081FC01EF57FF4F2F5F2F7749
:100240002083832F08958FEF08958FEF0895809175
:100250000A0190910B01FC01E058FF4F208131967B
:100260008081281729F0E1ECF0E0808180628083B2
:1002700008951F920F920FB60F9211242F933F9360
:100280004F935F936F937F938F939F93AF93BF939E
:10029000EF93FF936091C60080910C0190910D0146
:1002A0000E94E900FF91EF91BF91AF919F918F91D3
:1002B0007F916F915F914F913F912F910F900FBE62
:1002C0000F901F9018951F920F920FB60F92112446
:1002D0002F933F934F935F936F937F938F939F934E
:1002E000AF93BF93EF93FF936091CE00809108018D
:1002F000909109010E94E900FF91EF91BF91AF91A8
:100300009F918F917F916F915F914F913F912F912D
:100310000F900FBE0F901F9018951F920F920FB65F
:100320000F9211242F933F934F935F936F937F937B
:100330008F939F93AF93BF93EF93FF9380910A01A5
:1003400090910B01FC01EF57FF4F308131972081D5
:10035000321729F00E940D018093C60005C0E1EC20
:10036000F0E080818F7D8083FF91EF91BF91AF910D
:100370009F918F917F916F915F914F913F912F91BD
:100380000F900FBE0F901F9018951F920F920FB6EF
:100390000F9211242F933F934F935F936F937F930B
:1003A0008F939F93AF93BF93EF93FF938091060139
:1003B00090910701FC01EF57FF4F30813197208169
:1003C000321729F00E940D018093CE0005C0E9ECA0
:1003D000F0E080818F7D8083FF91EF91BF91AF919D
:1003E0009F918F917F916F915F914F913F912F914D
:1003F0000F900FBE0F901F90189580E480937C00A3
:1004000084E880937A000895EAE7F0E080818064D0
:10041000808380917A0086FDFCCF80917800909156
:10042000790008950E9404029C01AFE5B0E00E94AB
:100430008F022FEF33E040E050E00E946D02C901CF
:10044000059608958AB180638AB9089582E0809301
:10045000B00084E08093B10089EF8093B300E0E7BF
:10046000F0E0808182608083789408951F920F92DB
:100470000FB60F9211248F939F9380910E0190914C
:100480000F01019690930F0180930E0180910E0150
:1004900090910F018436910560F010920F01109237
:1004A0000E019BB180E189278BB99BB180E289273E
:1004B0008BB99F918F910F900FBE0F901F90189541
:1004C0008AB180648AB983E884BD82E085BD0895DD
:1004D00089EF87BD089517BC0895A1E21A2EAA1BC3
:1004E000BB1BFD010DC0AA1FBB1FEE1FFF1FA217E4
:1004F000B307E407F50720F0A21BB30BE40BF50BE1
:10050000661F771F881F991F1A9469F76095709569
:10051000809590959B01AC01BD01CF010895A29FEC
:10052000B001B39FC001A39F700D811D1124911DC7
:10053000B29F700D811D1124911D08950F931F937B
:10054000CF93DF938230910510F482E090E0E09148
:100550001201F091130120E030E0A0E0B0E030970C
:1005600019F1408151810281138148175907C8F060
:100570008417950769F4109731F012960C9312972F
:1005800013961C9327C0009312011093130122C0ED
:100590002115310519F04217530718F49A01BD01CE
:1005A000EF01DF01F801DBCF21153105F9F0281B40
:1005B000390B2430310580F48A819B8161157105E6
:1005C00021F0FB019383828304C0909313018093F5
:1005D0001201FE01329644C0FE01E20FF31F819327
:1005E000919322503109398328833AC02091100118
:1005F00030911101232B41F420910201309103012C
:1006000030931101209310012091000130910101DC
:100610002115310541F42DB73EB7409104015091A9
:100620000501241B350BE0911001F0911101E21737
:10063000F307A0F42E1B3F0B2817390778F0AC0105
:100640004E5F5F4F2417350748F04E0F5F1F5093E2
:100650001101409310018193919302C0E0E0F0E01A
:10066000CF01DF91CF911F910F910895CF93DF9329
:10067000009709F481C0FC01329713821282A09185
:100680001201B0911301109781F420813181820F02
:10069000931F20911001309111012817390751F54E
:1006A000F0931101E093100167C0ED0120E030E00C
:1006B000CE17DF0740F44A815B819E014115510549
:1006C000F1F0EA01F5CFD383C28340815181840FD9
:1006D000951FC817D90759F488819981840F951FF0
:1006E0000296918380838A819B81938382832115E3
:1006F000310529F4F0931301E09312013DC0E901A3
:10070000FB83EA8349915991C40FD51FEC17FD076C
:1007100061F480819181840F951F0296E90199838C
:100720008883828193819B838A83E0E0F0E0129644
:100730008D919C911397009719F0FD01DC01F7CF83
:100740008D919C9111979D012E5F3F4F820F931FBA
:1007500020911001309111012817390769F4309761
:1007600029F4109213011092120102C01382128216
:10077000B0931101A0931001DF91CF910895F894E7
:02078000FFCFA9
:060782000000140120003C
:00000001FF
