S010000067656F66656E63652E73726563D8
S11300000C945A000C9464000C9464000C946400E6
S11300100C9464000C9464000C9464000C946400CC
S11300200C9464000C9464000C9464000C946400BC
S11300300C9464000C9464000C9464000C946400AC
S11300400C9464000C9464000C9464000C9464009C
S11300500C9464000C9464000C9464000C9464008C
S11300600C9464000C9464000C9464000C9464007C
S11300700C9470000C9464000C9464000C94640060
S11300800C9464000C9464000C9464000C9464005C
S11300900C9464000C9464000C9464000C9464004C
S11300A00C9464000C9464000C9464000C9464003C
S11300B00C94640011241FBECFEFD8E0DEBFCDBF87
S11300C00E9466000C9496000C94000087E690E071
S11300D00E948B0087E690E00E9480007894FFCF16
S11300E01F920F920FB60F9211248F938091CE001E
S11300F08093C6008F910F900FBE0F901F9018959C
S11301009093CD008093CC0088E98093C90086E069
S11301108093CA0008959093C5008093C40088E03A
S11301208093C10086E08093C2000895F894FFCFC5
S9030000FC
