S010000067656F66656E63652E73726563D8
S11300000C9487000C94A4000C94A4000C94A400F9
S11300100C94A4000C94A4000C94A4000C9431013E
S11300200C94A4000C94A4000C94A4000C94A400BC
S11300300C94A4000C94A4000C94A4000C94A400AC
S11300400C94A4000C94A4000C9489030C941A043A
S11300500C94A4000C94A4000C94A4000C94A4008C
S11300600C94A4000C94A4000C94A4000C94A4007C
S11300700C94B3030C9452040C94A4000C94A400A8
S11300800C94A4000C94A4000C94A4000C94A4005C
S11300900C94A4000C94A4000C94A4000C94A4004C
S11300A00C94A4000C94A4000C94A4000C94A4003C
S11300B00C94A40005A84CCDB2D44EB93836A9028C
S11300C00C50B9918688083CA6AAAA2ABE00000052
S11300D0803F4E414E494E495459494E46CDCCCCB1
S11300E03D0AD7233C17B7D13877CC2B329595E608
S11300F0241FB14F0A000020410000C84200401CE8
S11301004620BCBE4CCA1B0E5AAEC59D74001124B9
S11301101FBECFEFD8E0DEBFCDBF11E0A0E0B1E05D
S1130120E6EFF6E102C005900D92AE33B107D9F7C0
S113013021E0AEE3B1E001C01D92AE37B207E1F7B2
S11301400E9478010C94790B0C9400001092B90071
S113015088E48093B800089584E98093BC008FE913
S11301609FE00197F1F700C00000089584EA8093AE
S1130170BC008091BC008823E4F708958093BB0001
S113018084E88093BC008091BC008823E4F7089540
S1130190CF93C82F0E94B6008CE70E94BE0080E86F
S11301A00E94BE008C2F0E94BE000E94AC00CF9122
S11301B00895CF93C82F0E94B6008CE70E94BE001A
S11301C080E40E94BE008C2F0E94BE000E94AC00FE
S11301D0CF9108952FEF80E792E021508040904026
S11301E0E1F700C0000088E30E94C80089E30E9490
S11301F0C80084E10E94C80080E70E94C80086E528
S11302000E94C8008CE60E94C8002FEF83EC99E09E
S1130210215080409040E1F700C0000088E30E9434
S1130220C8008CE00E94C80081E00E94C8008FE3EF
S11302309FE10197F1F700C0000008956111805C0F
S113024080680E94C8000895CF93DF93EC0103C037
S113025021960E94D90088818111FACFDF91CF9134
S113026008951F920F920FB60F9211248F939F93AC
S113027080913E0190913F018134910594F1109257
S11302803F0110923E018091420190914301892BDC
S1130290F1F08091400190914101892B69F48BB177
S11302A080618BB98BB18F7D8BB981E090E09093A5
S11302B041018093400115C08BB18F7E8BB98BB106
S11302C080628BB910924101109240010AC08BB137
S11302D08F7E8BB98BB18F7D8BB9109241011092B7
S11302E040019F918F910F900FBE0F901F90189512
S11302F0CF93DF93CDB7DEB7CA57D1090FB6F894C1
S1130300DEBF0FBECDBF0E94A6000E94EA000E947D
S11303108A040E94C3040E94C7040E948D0587E6D4
S113032090E00E94F00287E690E00E94CD021982DC
S11303301A821B821C821D821E821F821886789458
S11303400E94770310E01DC084E3EAE0F1E0DE01DF
S1130350989601900D928A95E1F72FEF81EE94E043
S1130360215080409040E1F700C000000E94C80284
S113037043E3BE01685D7F4F0E9449030E947703F7
S11303801F5F1A3008F3712C0E94BE02BC01CE011B
S1130390845A9F4F0E9467028FE1FE01E45AFF4F87
S11303A0DE01199601900D928A95E1F70E94BE0232
S11303B08C010E94C30242E5B8010E9449030E94D5
S11303C0650360E080E00E941E01CE010D960E944C
S11303D0240161E080E00E941E01CE014A960E9441
S11303E024010E949405882309F171101FC061E063
S11303F08DE00E941E0186E091E00E9424010E948B
S11304009F048C0169857A858B859C8569837A83B1
S11304108B839C832E893F89488D598D2D833E8300
S11304204F8358870E94D404772473940E949F04B6
S11304304C012D813E814F81588569817A818B8160
S11304409C81AE88BF88C88CD98CE984FA840B85DA
S11304501C850E94F4040E9421068616970648F41F
S113046081E090E090934301809342010E94CF0485
S11304708BCF10924301109242010E94D20484CF88
S1130480CF93DF93DC01EB019983888390E071E0E3
S113049011C05C3271F41082E72FF0E0EE0FFF1F01
S11304A0EC0FFD1F2F5F3F4F2A0F3B1F318320832B
S11304B07F5F9F5F741740F4292F30E0FD01E20F46
S11304C0F31F50815A3229F7DF91CF9108950F938A
S11304D01F93CF93DF93EC01CB014FE06AE571E00A
S11304E00E9440020AE511E0F801848195810E948E
S11304F08709688379838A839B83F8018085918542
S11305000E9487096D877E878F87988BF801848581
S113051095850E948B099C8F8B8FF8018685978522
S11305200E948B099E8F8D8F20E00EC0822F90E059
S1130530E0915E01F0915F01E80FF91F3081FE0147
S1130540E80FF91F34832F5F293080F320E00EC0B9
S1130550822F90E0E0916201F0916301E80FF91FAE
S11305603081FE01E80FF91F318B2F5F2A3080F3B1
S1130570CE01DF91CF911F910F9108958091470192
S113058090914801089580914B0190914C010895F8
S1130590809145019091460108959093CD008093F8
S11305A0CC0088E98093C90086E08093CA0082E584
S11305B090E00E94660890934A018093490182E585
S11305C090E00E946608909348018093470182E876
S11305D090E00E9466089093460180934501089537
S11305E09093C5008093C40088E18093C10086E0A5
S11305F08093C20082E890E00E94660890934E01C6
S113060080934D0182E890E00E94660890934C012B
S113061080934B010895009709F1FC01E058FF4FC6
S1130620208141E050E02E3711F040E050E0FC0121
S1130630EF57FF4FE081F0E04E235F23452B21F07D
S1130640FC01EF57FF4F2083FC01E20FF11D608393
S1130650FC01E058FF4F2F5F2F7720830895009708
S1130660A1F0FC01EF57FF4F208131973081231710
S113067071F0FC01E20FF11D3081FC01EF57FF4FD7
S11306802F5F2F772083832F08958FEF08958FEFA7
S11306900895EF92FF920F931F93CF93DF937C0102
S11306A08B01D42FC0E008C0F801EC0FF11D60816C
S11306B0C7010E940B03CF5FCD17B0F3DF91CF9139
S11306C01F910F91FF90EF90089580914B019091AD
S11306D04C01FC01E058FF4F20813196808128179E
S11306E029F0E1ECF0E080818062808308958091BC
S11306F0450190914601FC01E058FF4F208131965D
S11307008081281729F0E9ECF0E080818062808301
S113071008951F920F920FB60F9211242F933F93B7
S11307204F935F936F937F938F939F93AF93BF93F5
S1130730EF93FF936091C60080914D0190914E011B
S11307400E940B03FF91EF91BF91AF919F918F9105
S11307507F916F915F914F913F912F910F900FBEB9
S11307600F901F9018951F920F920FB60F9211249D
S11307702F934F935F938F939F93AF93BF93EF9375
S1130780FF938091CE00843281F4E0914901F0918D
S11307904A018091440191E0980F90934401E80F3D
S11307A0F11D8091CE00808337C08091CE008A32C3
S11307B021F580914401E0914901F0914A01E80F4B
S11307C0F11D8091CE00808320E012C0822F90E042
S11307D0E0914701F0914801E80FF91F4091490168
S11307E050914A01DA01A80FB91F8C9180832F5FC1
S11307F0223560F3109244010FC0E0914901F09159
S11308004A018091440191E0980F90934401E80FCC
S1130810F11D8091CE008083FF91EF91BF91AF9144
S11308209F918F915F914F912F910F900FBE0F90D9
S11308301F9018951F920F920FB60F9211242F93A9
S11308403F934F935F936F937F938F939F93AF9354
S1130850BF93EF93FF9380914B0190914C01FC0166
S1130860EF57FF4F308131972081321729F00E94D2
S11308702F038093C60005C0E1ECF0E080818F7DFA
S11308808083FF91EF91BF91AF919F918F917F9161
S11308906F915F914F913F912F910F900FBE0F90E9
S11308A01F9018951F920F920FB60F9211242F9339
S11308B03F934F935F936F937F938F939F93AF93E4
S11308C0BF93EF93FF938091450190914601FC0102
S11308D0EF57FF4F308131972081321729F00E9462
S11308E02F038093CE0005C0E9ECF0E080818F7D7A
S11308F08083FF91EF91BF91AF919F918F917F91F1
S11309006F915F914F913F912F910F900FBE0F9078
S11309101F90189580E480937C0084E880937A008B
S11309200895EAE7F0E080818064808380917A0012
S113093086FDFCCF809178009091790008950F9303
S11309401F930E949104AC0160E070E0DB01CA01D6
S1130950880F991FAA1FBB1F880F991FAA1FBB1FAF
S11309608C019D01040F151F261F371FC901B801F3
S11309702FEF33E040E050E00E944408C90105969F
S11309801F910F9108958AB180638AB908958AB13D
S113099080648AB983E884BD82E085BD08958EEFC2
S11309A087BD089517BC08950F931F936093560154
S11309B070935701809358019093590120935201E9
S11309C030935301409354015093550110935101B6
S11309D0009350011F910F91089525E33AEF4EE8DB
S11309E05CE30E941D0708954F925F926F927F927D
S11309F08F929F92AF92BF92CF92DF92EF92FF922B
S1130A000F931F93CF93DF93CDB7DEB72C970FB619
S1130A10F894DEBF0FBECDBF2B013C012D833E8376
S1130A204F835887E982FA820B831C839B01AC01B4
S1130A30C801B7010E94AF0569877A878B879C87B5
S1130A402D813E814F815885C601B5010E94AF05B5
S1130A504B015C0120E03CE649ED57E469857A8569
S1130A608B859C850E941D076B017C01A30192016B
S1130A7069817A818B819C810E94B00520E030E0FD
S1130A8040E05FE30E941D072B013C0120E03CE6AF
S1130A9049ED57E4C501B4010E941D074B015C01F7
S1130AA0C301B2010E94ED040E941C069B01AC012B
S1130AB0C501B4010E941D074B015C01A701960109
S1130AC0C701B6010E941D076B017C01A5019401B9
S1130AD0C501B4010E941D074B015C01A5019401ED
S1130AE0C701B6010E94B0050E9490072C960FB66C
S1130AF0F894DEBF0FBECDBFDF91CF911F910F9150
S1130B00FF90EF90DF90CF90BF90AF909F908F9029
S1130B107F906F905F904F9008958AB18B7F8AB9D0
S1130B208BB184608BB9089599B1892F847092FD3B
S1130B3010C090914F0191110CC0EFE3FCE9319783
S1130B40F1F700C000004A9904C081E080934F018E
S1130B500895882319F010924F0180E008955058A9
S1130B60BB27AA270E94C7050C94CF060E949606AD
S1130B7038F00E949D0620F039F49F3F19F426F4C2
S1130B800C9493060EF4E095E7FB0C948D06E92F84
S1130B900E94F40658F3BA1762077307840795078F
S1130BA020F079F4A6F50C9416070EF4E0950B2EBC
S1130BB0BA2FA02D0B01B90190010C01CA01A001AB
S1130BC01124FF27591B99F0593F50F4503E68F106
S1130BD01A16F040A22F232F342F4427585FF3CF47
S1130BE0469537952795A795F0405395C9F77EF418
S1130BF01F16BA0B620B730B840BBAF09150A1F061
S1130C00FF0FBB1F661F771F881FC2F70EC0BA0FE6
S1130C10621F731F841F48F4879577956795B7956E
S1130C20F7959E3F08F0B0CF9395880F08F0992769
S1130C30EE0F9795879508950E94A606E3950C9468
S1130C40E0060E94FC0688F09F5798F0B92F992778
S1130C50B751B0F0E1F0660F771F881F991F1AF0A3
S1130C60BA95C9F714C0B13091F00E941607B1E0EB
S1130C7008950C941607672F782F8827B85F39F0EA
S1130C80B93FCCF3869577956795B395D9F73EF43C
S1130C9090958095709561957F4F8F4F9F4F0895E4
S1130CA0E89409C097FB3EF4909580957095619502
S1130CB07F4F8F4F9F4F9923A9F0F92F96E9BB27B8
S1130CC09395F695879577956795B795F111F8CF34
S1130CD0FAF4BB0F11F460FF1BC06F5F7F4F8F4F9F
S1130CE09F4F16C0882311F096E911C0772321F095
S1130CF09EE8872F762F05C0662371F096E8862F2D
S1130D0070E060E02AF09A95660F771F881FDAF783
S1130D10880F9695879597F9089597F99F6780E8C6
S1130D2070E060E008959FEF80EC089500240A9439
S1130D301616170618060906089500240A941216B2
S1130D4013061406050608950C9493060E94FC06E7
S1130D50D8F3E894E0E0BB279F57F0F02AED3FE09A
S1130D6049EC06C0EE0FBB0F661F771F881F28F0E3
S1130D70B23A62077307840728F0B25A620B730B06
S1130D80840BE3959A9572F7803830F49A95BB0FEB
S1130D90661F771F881FD2F790480C94F607092E18
S1130DA00394000C11F4882352F0BB0F40F4BF2BC2
S1130DB011F460FF04C06F5F7F4F8F4F9F4F089502
S1130DC0EF93E0FF07C0A2EA2AED3FE049EC5FEBB6
S1130DD00E94C7050E94CF060F90039401FC90580F
S1130DE0E4EBF0E00C94090857FD9058440F551FAC
S1130DF059F05F3F71F04795880F97FB991F61F099
S1130E009F3F79F087950895121613061406551F0F
S1130E10F2CF4695F1DF08C0161617061806991F7B
S1130E20F1CF86957105610508940895E894BB2770
S1130E3066277727CB0197F908950E9430070C9411
S1130E40CF060E94960638F00E949D0620F0952356
S1130E5011F00C948D060C94930611240C9417072E
S1130E600E94F40670F3959FC1F3950F50E0551F4F
S1130E70629FF001729FBB27F00DB11D639FAA27EB
S1130E80F00DB11DAA1F649F6627B00DA11D661F3A
S1130E90829F2227B00DA11D621F739FB00DA11D5B
S1130EA0621F839FA00D611D221F749F3327A00D15
S1130EB0611D231F849F600D211D822F762F6A2FB1
S1130EC011249F5750409AF0F1F088234AF0EE0F16
S1130ED0FF1FBB1F661F771F881F91505040A9F743
S1130EE09E3F510580F00C948D060C9417075F3FCC
S1130EF0E4F3983ED4F3869577956795B795F7957F
S1130F00E7959F5FC1F7FE2B880F911D96958795F6
S1130F1097F9089519F416F40C9493060C94F407B5
S1130F200E94FC06B8F39923C9F3B6F39F57550BF7
S1130F3087FF0E9402080024A0E640EA900180583E
S1130F405695979528F4805C660F771F881F20F0CC
S1130F5026173707480730F4621B730B840B2029CC
S1130F6031294A2BA69517940794202531254A2721
S1130F7058F7660F771F881F20F026173707480792
S1130F8030F4620B730B840B200D311D411DA095B1
S1130F9081F7B901842F9158880F96958795089504
S1130FA0990F0008550FAA0BE0E8FEEF1616170676
S1130FB0E807F907C0F012161306E407F50798F0DE
S1130FC0621B730B840B950B39F40A2661F0232BF7
S1130FD0242B252B21F408950A2609F4A140A69573
S1130FE08FEF811D811D08959F3F31F0915020F4B2
S1130FF0879577956795B795880F911D96958795F1
S113100097F9089591505040660F771F881FD2F7C3
S113101008959F938F937F936F93FF93EF939B0117
S1131020AC010E941D07EF91FF910E941D082F91B2
S11310303F914F915F910C941D07DF93CF931F93C2
S11310400F93FF92EF92DF927B018C01689406C0AC
S1131050DA2EEF010E943007FE01E894A591259154
S1131060359145915591A6F3EF010E94C705FE0104
S11310709701A801DA9469F7DF90EF90FF900F9140
S11310801F91CF91DF910895A1E21A2EAA1BBB1BD9
S1131090FD010DC0AA1FBB1FEE1FFF1FA217B30740
S11310A0E407F50720F0A21BB30BE40BF50B661F56
S11310B0771F881F991F1A9469F76095709580951A
S11310C090959B01AC01BD01CF0108950F931F932F
S11310D0CF93DF938230910510F482E090E0E091A9
S11310E07A01F0917B0120E030E0A0E0B0E030979D
S11310F019F1408151810281138148175907C8F0C1
S11311008417950769F4109731F012960C9312978F
S113111013961C9327C000937A0110937B0122C07D
S11311202115310519F04217530718F49A01BD012E
S1131130EF01DF01F801DBCF21153105F9F0281BA0
S1131140390B2430310580F48A819B816115710546
S113115021F0FB019383828304C090937B018093ED
S11311607A01FE01329644C0FE01E20FF31F81931F
S1131170919322503109398328833AC02091780110
S113118030917901232B41F4209102013091030124
S1131190309379012093780120910001309101016D
S11311A02115310541F42DB73EB74091040150910A
S11311B00501241B350BE0917801F0917901E217C8
S11311C0F307A0F42E1B3F0B2817390778F0AC0166
S11311D04E5F5F4F2417350748F04E0F5F1F509343
S11311E07901409378018193919302C0E0E0F0E0AB
S11311F0CF01DF91CF911F910F910895CF93DF938A
S1131200009709F481C0FC01329713821282A091E5
S11312107A01B0917B01109781F420813181820F92
S1131220931F20917801309179012817390751F5DE
S1131230F0937901E093780167C0ED0120E030E09C
S1131240CE17DF0740F44A815B819E0141155105A9
S1131250F1F0EA01F5CFD383C28340815181840F39
S1131260951FC817D90759F488819981840F951F50
S11312700296918380838A819B8193838283211543
S1131280310529F4F0937B01E0937A013DC0E90133
S1131290FB83EA8349915991C40FD51FEC17FD07CD
S11312A061F480819181840F951F0296E9019983ED
S11312B08883828193819B838A83E0E0F0E01296A5
S11312C08D919C911397009719F0FD01DC01F7CFE4
S11312D08D919C9111979D012E5F3F4F820F931F1B
S11312E020917801309179012817390769F43097F2
S11312F029F410927B0110927A0102C013821282A7
S1131300B0937901A0937801DF91CF910895662776
S113131077270C94B109FC0188279927E894219137
S11313202032E9F3293010F02E30C8F32B3241F08B
S11313302D3239F4689404C00E94A909820F911DCA
S1131340219120532A30C0F31EF4909581959F4F2C
S113135008957AE0979F902D879F802D910D1124F9
S11313600895A0E0B0E0E7EBF9E00C94390BEC0150
S11313706B016115710519F0FB01918380837E0176
S1131380FFEFEF1AFF0A0881802F90E00E94FF0A06
S1131390892B11F0E701F3CF0D3239F47E0182E09D
S11313A0E80EF11C098111E008C00B3229F47E011A
S11313B092E0E90EF11C098110E0E701219743E076
S11313C050E06AED70E0CE010E94080B892BC1F455
S11313D0239645E050E065ED70E0CE010E94080BD5
S11313E0892B09F42596C114D10419F0F601D1838F
S11313F0C0831111F6C060E070E080E89FE7FAC096
S113140043E050E062ED70E0CE010E94080B892BAE
S113141059F4C114D10409F4E9C0F2E0EF0EF11C4F
S1131420F601F182E082E2C020E030E0A901C0E0F0
S1131430D0E0F70180EDA82EA00E89E08A1530F1E6
S1131440912F9260B92E812F887012FF04C08111F0
S113145024C0219622C081112197A5E0B0E00E940A
S1131460280BDC01CB01880F991FAA1FBB1F9C010D
S1131470AD012A0D311D411D511D283989E9380757
S1131480480789E1580748F0166006C09EEFA91284
S11314900AC013FD40C01860B12E8FEFE81AF80A95
S11314A000811B2DC6CF802F8F7D8534A1F58081CF
S11314B08D3211F4106106C08B3221F0319661E057
S11314C070E004C08181329662E070E080538A301B
S11314D018F0E61BF70B1FC060E070E060389CE07A
S11314E079075CF4DB01AA0FBB1FAA0FBB1F6A0FAD
S11314F07B1F660F771F680F711D3196DF011197EF
S11315008C9180538A3050F314FF03C07195619518
S11315107109C60FD71F11FF08C0C114D10429F0E7
S1131520CF010197F60191838083CA01B9010E941A
S11315305006212F2370233019F04B015C0106C0A3
S11315404B015C01B7FAB094B7F8B09420E030E0F6
S1131550A901C501B4010E94200B882309F43EC0EF
S1131560D7FF06C0D195C195D10901EF10E002C0A3
S113157009E011E06801F8E1CF1AD10890E2E92E00
S1131580F12CCE15DF0574F0F801259135914591C4
S11315905491C501B4010E941D074B015C01CE1991
S11315A0DF09EFCF04501109F594E7940C151D05DC
S11315B041F78A2D880F8B2D881F8F3F49F020E03B
S11315C030E0A901C501B4010E94200B811106C0BD
S11315D082E290E090937D0180937C01C501B40187
S11315E009C060E070E080E89FEF04C060E070E054
S11315F080EC9FE7CDB7DEB7ECE00C94550B91116E
S11316000C94250B803219F089508550C8F7089541
S1131610FB01DC014150504088F08D9181341CF075
S11316208B350CF4805E659161341CF06B350CF4E1
S1131630605E861B611171F3990B0895881BFCCFC2
S11316400E94D00708F481E0089599278827089517
S11316500E946A0BA59F900DB49F900DA49F800DCE
S1131660911D112408952F923F924F925F926F9291
S11316707F928F929F92AF92BF92CF92DF92EF921E
S1131680FF920F931F93CF93DF93CDB7DEB7CA1B9F
S1131690DB0B0FB6F894DEBF0FBECDBF09942A88CA
S11316A0398848885F846E847D848C849B84AA8472
S11316B0B984C884DF80EE80FD800C811B81AA81FF
S11316C0B981CE0FD11D0FB6F894DEBF0FBECDBFCA
S11316D0ED010895A29FB001B39FC001A39F700DB7
S11316E0811D1124911DB29F700D811D1124911D26
S10916F00895F894FFCFF9
S11316F600007E0120007365740024504D544B3362
S113170631342C302C302C302C312C302C302C30E5
S11317162C302C302C302C302C302C302C302C30DF
S11117262C302C302C302C302A32390D0A0095
S9030000FC
